{
  "_format": "hh-sol-artifact-1",
  "contractName": "NFTMarket",
  "sourceName": "contracts/nftMarket.sol",
  "abi": [
    {
      "inputs": [],
      "stateMutability": "nonpayable",
      "type": "constructor"
    },
    {
      "anonymous": false,
      "inputs": [
        {
          "indexed": true,
          "internalType": "address",
          "name": "owner",
          "type": "address"
        },
        {
          "indexed": true,
          "internalType": "address",
          "name": "approved",
          "type": "address"
        },
        {
          "indexed": true,
          "internalType": "uint256",
          "name": "tokenId",
          "type": "uint256"
        }
      ],
      "name": "Approval",
      "type": "event"
    },
    {
      "anonymous": false,
      "inputs": [
        {
          "indexed": true,
          "internalType": "address",
          "name": "owner",
          "type": "address"
        },
        {
          "indexed": true,
          "internalType": "address",
          "name": "operator",
          "type": "address"
        },
        {
          "indexed": false,
          "internalType": "bool",
          "name": "approved",
          "type": "bool"
        }
      ],
      "name": "ApprovalForAll",
      "type": "event"
    },
    {
      "anonymous": false,
      "inputs": [
        {
          "indexed": false,
          "internalType": "uint256",
          "name": "tokenId",
          "type": "uint256"
        },
        {
          "indexed": false,
          "internalType": "address",
          "name": "from",
          "type": "address"
        },
        {
          "indexed": false,
          "internalType": "address",
          "name": "to",
          "type": "address"
        },
        {
          "indexed": false,
          "internalType": "string",
          "name": "tokenURI",
          "type": "string"
        },
        {
          "indexed": false,
          "internalType": "uint256",
          "name": "price",
          "type": "uint256"
        }
      ],
      "name": "NFTTransfer",
      "type": "event"
    },
    {
      "anonymous": false,
      "inputs": [
        {
          "indexed": true,
          "internalType": "address",
          "name": "previousOwner",
          "type": "address"
        },
        {
          "indexed": true,
          "internalType": "address",
          "name": "newOwner",
          "type": "address"
        }
      ],
      "name": "OwnershipTransferred",
      "type": "event"
    },
    {
      "anonymous": false,
      "inputs": [
        {
          "indexed": true,
          "internalType": "address",
          "name": "from",
          "type": "address"
        },
        {
          "indexed": true,
          "internalType": "address",
          "name": "to",
          "type": "address"
        },
        {
          "indexed": true,
          "internalType": "uint256",
          "name": "tokenId",
          "type": "uint256"
        }
      ],
      "name": "Transfer",
      "type": "event"
    },
    {
      "inputs": [
        {
          "internalType": "address",
          "name": "to",
          "type": "address"
        },
        {
          "internalType": "uint256",
          "name": "tokenId",
          "type": "uint256"
        }
      ],
      "name": "approve",
      "outputs": [],
      "stateMutability": "nonpayable",
      "type": "function"
    },
    {
      "inputs": [
        {
          "internalType": "address",
          "name": "owner",
          "type": "address"
        }
      ],
      "name": "balanceOf",
      "outputs": [
        {
          "internalType": "uint256",
          "name": "",
          "type": "uint256"
        }
      ],
      "stateMutability": "view",
      "type": "function"
    },
    {
      "inputs": [
        {
          "internalType": "uint256",
          "name": "tokenId",
          "type": "uint256"
        }
      ],
      "name": "buyNFT",
      "outputs": [],
      "stateMutability": "payable",
      "type": "function"
    },
    {
      "inputs": [
        {
          "internalType": "uint256",
          "name": "tokenId",
          "type": "uint256"
        }
      ],
      "name": "cancelListing",
      "outputs": [],
      "stateMutability": "nonpayable",
      "type": "function"
    },
    {
      "inputs": [
        {
          "internalType": "string",
          "name": "tokenURI",
          "type": "string"
        }
      ],
      "name": "createNFT",
      "outputs": [],
      "stateMutability": "nonpayable",
      "type": "function"
    },
    {
      "inputs": [
        {
          "internalType": "uint256",
          "name": "tokenId",
          "type": "uint256"
        }
      ],
      "name": "getApproved",
      "outputs": [
        {
          "internalType": "address",
          "name": "",
          "type": "address"
        }
      ],
      "stateMutability": "view",
      "type": "function"
    },
    {
      "inputs": [
        {
          "internalType": "address",
          "name": "owner",
          "type": "address"
        },
        {
          "internalType": "address",
          "name": "operator",
          "type": "address"
        }
      ],
      "name": "isApprovedForAll",
      "outputs": [
        {
          "internalType": "bool",
          "name": "",
          "type": "bool"
        }
      ],
      "stateMutability": "view",
      "type": "function"
    },
    {
      "inputs": [
        {
          "internalType": "uint256",
          "name": "tokenId",
          "type": "uint256"
        },
        {
          "internalType": "uint256",
          "name": "price",
          "type": "uint256"
        }
      ],
      "name": "listNFT",
      "outputs": [],
      "stateMutability": "nonpayable",
      "type": "function"
    },
    {
      "inputs": [],
      "name": "name",
      "outputs": [
        {
          "internalType": "string",
          "name": "",
          "type": "string"
        }
      ],
      "stateMutability": "view",
      "type": "function"
    },
    {
      "inputs": [],
      "name": "owner",
      "outputs": [
        {
          "internalType": "address",
          "name": "",
          "type": "address"
        }
      ],
      "stateMutability": "view",
      "type": "function"
    },
    {
      "inputs": [
        {
          "internalType": "uint256",
          "name": "tokenId",
          "type": "uint256"
        }
      ],
      "name": "ownerOf",
      "outputs": [
        {
          "internalType": "address",
          "name": "",
          "type": "address"
        }
      ],
      "stateMutability": "view",
      "type": "function"
    },
    {
      "inputs": [],
      "name": "renounceOwnership",
      "outputs": [],
      "stateMutability": "nonpayable",
      "type": "function"
    },
    {
      "inputs": [
        {
          "internalType": "address",
          "name": "from",
          "type": "address"
        },
        {
          "internalType": "address",
          "name": "to",
          "type": "address"
        },
        {
          "internalType": "uint256",
          "name": "tokenId",
          "type": "uint256"
        }
      ],
      "name": "safeTransferFrom",
      "outputs": [],
      "stateMutability": "nonpayable",
      "type": "function"
    },
    {
      "inputs": [
        {
          "internalType": "address",
          "name": "from",
          "type": "address"
        },
        {
          "internalType": "address",
          "name": "to",
          "type": "address"
        },
        {
          "internalType": "uint256",
          "name": "tokenId",
          "type": "uint256"
        },
        {
          "internalType": "bytes",
          "name": "data",
          "type": "bytes"
        }
      ],
      "name": "safeTransferFrom",
      "outputs": [],
      "stateMutability": "nonpayable",
      "type": "function"
    },
    {
      "inputs": [
        {
          "internalType": "address",
          "name": "operator",
          "type": "address"
        },
        {
          "internalType": "bool",
          "name": "approved",
          "type": "bool"
        }
      ],
      "name": "setApprovalForAll",
      "outputs": [],
      "stateMutability": "nonpayable",
      "type": "function"
    },
    {
      "inputs": [
        {
          "internalType": "bytes4",
          "name": "interfaceId",
          "type": "bytes4"
        }
      ],
      "name": "supportsInterface",
      "outputs": [
        {
          "internalType": "bool",
          "name": "",
          "type": "bool"
        }
      ],
      "stateMutability": "view",
      "type": "function"
    },
    {
      "inputs": [],
      "name": "symbol",
      "outputs": [
        {
          "internalType": "string",
          "name": "",
          "type": "string"
        }
      ],
      "stateMutability": "view",
      "type": "function"
    },
    {
      "inputs": [
        {
          "internalType": "uint256",
          "name": "tokenId",
          "type": "uint256"
        }
      ],
      "name": "tokenURI",
      "outputs": [
        {
          "internalType": "string",
          "name": "",
          "type": "string"
        }
      ],
      "stateMutability": "view",
      "type": "function"
    },
    {
      "inputs": [
        {
          "internalType": "address",
          "name": "from",
          "type": "address"
        },
        {
          "internalType": "address",
          "name": "to",
          "type": "address"
        },
        {
          "internalType": "uint256",
          "name": "tokenId",
          "type": "uint256"
        }
      ],
      "name": "transferFrom",
      "outputs": [],
      "stateMutability": "nonpayable",
      "type": "function"
    },
    {
      "inputs": [
        {
          "internalType": "address",
          "name": "newOwner",
          "type": "address"
        }
      ],
      "name": "transferOwnership",
      "outputs": [],
      "stateMutability": "nonpayable",
      "type": "function"
    },
    {
      "inputs": [],
      "name": "withdrawFunds",
      "outputs": [],
      "stateMutability": "nonpayable",
      "type": "function"
    }
  ],
  "bytecode": "0x60806040523480156200001157600080fd5b506040518060400160405280601581526020017f546865204162737472616374696f6e2773204e465400000000000000000000008152506040518060400160405280600581526020017f54414e4654000000000000000000000000000000000000000000000000000000815250816000908051906020019062000096929190620001a6565b508060019080519060200190620000af929190620001a6565b505050620000d2620000c6620000d860201b60201c565b620000e060201b60201c565b620002bb565b600033905090565b6000600760009054906101000a900473ffffffffffffffffffffffffffffffffffffffff16905081600760006101000a81548173ffffffffffffffffffffffffffffffffffffffff021916908373ffffffffffffffffffffffffffffffffffffffff1602179055508173ffffffffffffffffffffffffffffffffffffffff168173ffffffffffffffffffffffffffffffffffffffff167f8be0079c531659141344cd1fd0a4f28419497f9722a3daafe3b4186f6b6457e060405160405180910390a35050565b828054620001b49062000285565b90600052602060002090601f016020900481019282620001d8576000855562000224565b82601f10620001f357805160ff191683800117855562000224565b8280016001018555821562000224579182015b828111156200022357825182559160200191906001019062000206565b5b50905062000233919062000237565b5090565b5b808211156200025257600081600090555060010162000238565b5090565b7f4e487b7100000000000000000000000000000000000000000000000000000000600052602260045260246000fd5b600060028204905060018216806200029e57607f821691505b60208210811415620002b557620002b462000256565b5b50919050565b61396180620002cb6000396000f3fe60806040526004361061012a5760003560e01c806370a08231116100ab578063a22cb4651161006f578063a22cb465146103bb578063b88d4fde146103e4578063c87b56dd1461040d578063da2ed03e1461044a578063e985e9c514610473578063f2fde38b146104b05761012a565b806370a08231146102e8578063715018a6146103255780638da5cb5b1461033c57806394383f141461036757806395d89b41146103905761012a565b806324600fc3116100f257806324600fc314610226578063305a67a81461023d57806342842e0e1461026657806351ed82881461028f5780636352211e146102ab5761012a565b806301ffc9a71461012f57806306fdde031461016c578063081812fc14610197578063095ea7b3146101d457806323b872dd146101fd575b600080fd5b34801561013b57600080fd5b5061015660048036038101906101519190612398565b6104d9565b60405161016391906123e0565b60405180910390f35b34801561017857600080fd5b506101816105bb565b60405161018e9190612494565b60405180910390f35b3480156101a357600080fd5b506101be60048036038101906101b991906124ec565b61064d565b6040516101cb919061255a565b60405180910390f35b3480156101e057600080fd5b506101fb60048036038101906101f691906125a1565b610693565b005b34801561020957600080fd5b50610224600480360381019061021f91906125e1565b6107ab565b005b34801561023257600080fd5b5061023b61080b565b005b34801561024957600080fd5b50610264600480360381019061025f91906124ec565b6108ac565b005b34801561027257600080fd5b5061028d600480360381019061028891906125e1565b610aa1565b005b6102a960048036038101906102a491906124ec565b610ac1565b005b3480156102b757600080fd5b506102d260048036038101906102cd91906124ec565b610cff565b6040516102df919061255a565b60405180910390f35b3480156102f457600080fd5b5061030f600480360381019061030a9190612634565b610db1565b60405161031c9190612670565b60405180910390f35b34801561033157600080fd5b5061033a610e69565b005b34801561034857600080fd5b50610351610e7d565b60405161035e919061255a565b60405180910390f35b34801561037357600080fd5b5061038e6004803603810190610389919061268b565b610ea7565b005b34801561039c57600080fd5b506103a5610fc8565b6040516103b29190612494565b60405180910390f35b3480156103c757600080fd5b506103e260048036038101906103dd91906126f7565b61105a565b005b3480156103f057600080fd5b5061040b6004803603810190610406919061286c565b611070565b005b34801561041957600080fd5b50610434600480360381019061042f91906124ec565b6110d2565b6040516104419190612494565b60405180910390f35b34801561045657600080fd5b50610471600480360381019061046c9190612990565b6111e5565b005b34801561047f57600080fd5b5061049a600480360381019061049591906129d9565b611256565b6040516104a791906123e0565b60405180910390f35b3480156104bc57600080fd5b506104d760048036038101906104d29190612634565b6112ea565b005b60007f80ac58cd000000000000000000000000000000000000000000000000000000007bffffffffffffffffffffffffffffffffffffffffffffffffffffffff1916827bffffffffffffffffffffffffffffffffffffffffffffffffffffffff191614806105a457507f5b5e139f000000000000000000000000000000000000000000000000000000007bffffffffffffffffffffffffffffffffffffffffffffffffffffffff1916827bffffffffffffffffffffffffffffffffffffffffffffffffffffffff1916145b806105b457506105b38261136e565b5b9050919050565b6060600080546105ca90612a48565b80601f01602080910402602001604051908101604052809291908181526020018280546105f690612a48565b80156106435780601f1061061857610100808354040283529160200191610643565b820191906000526020600020905b81548152906001019060200180831161062657829003601f168201915b5050505050905090565b6000610658826113d8565b6004600083815260200190815260200160002060009054906101000a900473ffffffffffffffffffffffffffffffffffffffff169050919050565b600061069e82610cff565b90508073ffffffffffffffffffffffffffffffffffffffff168373ffffffffffffffffffffffffffffffffffffffff16141561070f576040517f08c379a000000000000000000000000000000000000000000000000000000000815260040161070690612aec565b60405180910390fd5b8073ffffffffffffffffffffffffffffffffffffffff1661072e611423565b73ffffffffffffffffffffffffffffffffffffffff16148061075d575061075c81610757611423565b611256565b5b61079c576040517f08c379a000000000000000000000000000000000000000000000000000000000815260040161079390612b7e565b60405180910390fd5b6107a6838361142b565b505050565b6107bc6107b6611423565b826114e4565b6107fb576040517f08c379a00000000000000000000000000000000000000000000000000000000081526004016107f290612c10565b60405180910390fd5b610806838383611579565b505050565b6108136117e0565b60004790506000811161085b576040517f08c379a000000000000000000000000000000000000000000000000000000000815260040161085290612c7c565b60405180910390fd5b610863610e7d565b73ffffffffffffffffffffffffffffffffffffffff166108fc829081150290604051600060405180830381858888f193505050501580156108a8573d6000803e3d6000fd5b5050565b600060096000838152602001908152602001600020604051806040016040529081600082015481526020016001820160009054906101000a900473ffffffffffffffffffffffffffffffffffffffff1673ffffffffffffffffffffffffffffffffffffffff1673ffffffffffffffffffffffffffffffffffffffff168152505090506000816000015111610975576040517f08c379a000000000000000000000000000000000000000000000000000000000815260040161096c90612d0e565b60405180910390fd5b3373ffffffffffffffffffffffffffffffffffffffff16816020015173ffffffffffffffffffffffffffffffffffffffff16146109e7576040517f08c379a00000000000000000000000000000000000000000000000000000000081526004016109de90612d7a565b60405180910390fd5b3073ffffffffffffffffffffffffffffffffffffffff166323b872dd3033856040518463ffffffff1660e01b8152600401610a2493929190612d9a565b600060405180830381600087803b158015610a3e57600080fd5b505af1158015610a52573d6000803e3d6000fd5b50505050610a5f8261185e565b7f705332a8918666802fc1504f63ff1f002a5f6cedd30d59ad7ae0b5281aeb8dca8230336000604051610a959493929190612e3c565b60405180910390a15050565b610abc83838360405180602001604052806000815250611070565b505050565b600060096000838152602001908152602001600020604051806040016040529081600082015481526020016001820160009054906101000a900473ffffffffffffffffffffffffffffffffffffffff1673ffffffffffffffffffffffffffffffffffffffff1673ffffffffffffffffffffffffffffffffffffffff168152505090506000816000015111610b8a576040517f08c379a0000000000000000000000000000000000000000000000000000000008152600401610b8190612d0e565b60405180910390fd5b80600001513414610bd0576040517f08c379a0000000000000000000000000000000000000000000000000000000008152600401610bc790612ee0565b60405180910390fd5b3073ffffffffffffffffffffffffffffffffffffffff166323b872dd3033856040518463ffffffff1660e01b8152600401610c0d93929190612d9a565b600060405180830381600087803b158015610c2757600080fd5b505af1158015610c3b573d6000803e3d6000fd5b50505050806020015173ffffffffffffffffffffffffffffffffffffffff166108fc610c886064610c7a605f86600001516118d390919063ffffffff16565b6118e990919063ffffffff16565b9081150290604051600060405180830381858888f19350505050158015610cb3573d6000803e3d6000fd5b50610cbd8261185e565b7f705332a8918666802fc1504f63ff1f002a5f6cedd30d59ad7ae0b5281aeb8dca8230336000604051610cf39493929190612e3c565b60405180910390a15050565b6000806002600084815260200190815260200160002060009054906101000a900473ffffffffffffffffffffffffffffffffffffffff169050600073ffffffffffffffffffffffffffffffffffffffff168173ffffffffffffffffffffffffffffffffffffffff161415610da8576040517f08c379a0000000000000000000000000000000000000000000000000000000008152600401610d9f90612f4c565b60405180910390fd5b80915050919050565b60008073ffffffffffffffffffffffffffffffffffffffff168273ffffffffffffffffffffffffffffffffffffffff161415610e22576040517f08c379a0000000000000000000000000000000000000000000000000000000008152600401610e1990612fde565b60405180910390fd5b600360008373ffffffffffffffffffffffffffffffffffffffff1673ffffffffffffffffffffffffffffffffffffffff168152602001908152602001600020549050919050565b610e716117e0565b610e7b60006118ff565b565b6000600760009054906101000a900473ffffffffffffffffffffffffffffffffffffffff16905090565b60008111610eea576040517f08c379a0000000000000000000000000000000000000000000000000000000008152600401610ee190613070565b60405180910390fd5b610ef53330846107ab565b60405180604001604052808281526020013373ffffffffffffffffffffffffffffffffffffffff16815250600960008481526020019081526020016000206000820151816000015560208201518160010160006101000a81548173ffffffffffffffffffffffffffffffffffffffff021916908373ffffffffffffffffffffffffffffffffffffffff1602179055509050507f705332a8918666802fc1504f63ff1f002a5f6cedd30d59ad7ae0b5281aeb8dca82333084604051610fbc9493929190613090565b60405180910390a15050565b606060018054610fd790612a48565b80601f016020809104026020016040519081016040528092919081815260200182805461100390612a48565b80156110505780601f1061102557610100808354040283529160200191611050565b820191906000526020600020905b81548152906001019060200180831161103357829003601f168201915b5050505050905090565b61106c611065611423565b83836119c5565b5050565b61108161107b611423565b836114e4565b6110c0576040517f08c379a00000000000000000000000000000000000000000000000000000000081526004016110b790612c10565b60405180910390fd5b6110cc84848484611b32565b50505050565b60606110dd826113d8565b60006006600084815260200190815260200160002080546110fd90612a48565b80601f016020809104026020016040519081016040528092919081815260200182805461112990612a48565b80156111765780601f1061114b57610100808354040283529160200191611176565b820191906000526020600020905b81548152906001019060200180831161115957829003601f168201915b505050505090506000611187611b8e565b905060008151141561119d5781925050506111e0565b6000825111156111d25780826040516020016111ba929190613124565b604051602081830303815290604052925050506111e0565b6111db84611ba5565b925050505b919050565b60006111f16008611c0d565b90506111fd3382611c1b565b6112078183611c39565b6112116008611cad565b7f705332a8918666802fc1504f63ff1f002a5f6cedd30d59ad7ae0b5281aeb8dca8160003385600060405161124a959493929190613148565b60405180910390a15050565b6000600560008473ffffffffffffffffffffffffffffffffffffffff1673ffffffffffffffffffffffffffffffffffffffff16815260200190815260200160002060008373ffffffffffffffffffffffffffffffffffffffff1673ffffffffffffffffffffffffffffffffffffffff16815260200190815260200160002060009054906101000a900460ff16905092915050565b6112f26117e0565b600073ffffffffffffffffffffffffffffffffffffffff168173ffffffffffffffffffffffffffffffffffffffff161415611362576040517f08c379a000000000000000000000000000000000000000000000000000000000815260040161135990613214565b60405180910390fd5b61136b816118ff565b50565b60007f01ffc9a7000000000000000000000000000000000000000000000000000000007bffffffffffffffffffffffffffffffffffffffffffffffffffffffff1916827bffffffffffffffffffffffffffffffffffffffffffffffffffffffff1916149050919050565b6113e181611cc3565b611420576040517f08c379a000000000000000000000000000000000000000000000000000000000815260040161141790612f4c565b60405180910390fd5b50565b600033905090565b816004600083815260200190815260200160002060006101000a81548173ffffffffffffffffffffffffffffffffffffffff021916908373ffffffffffffffffffffffffffffffffffffffff160217905550808273ffffffffffffffffffffffffffffffffffffffff1661149e83610cff565b73ffffffffffffffffffffffffffffffffffffffff167f8c5be1e5ebec7d5bd14f71427d1e84f3dd0314c0f7b2291e5b200ac8c7c3b92560405160405180910390a45050565b6000806114f083610cff565b90508073ffffffffffffffffffffffffffffffffffffffff168473ffffffffffffffffffffffffffffffffffffffff16148061153257506115318185611256565b5b8061157057508373ffffffffffffffffffffffffffffffffffffffff166115588461064d565b73ffffffffffffffffffffffffffffffffffffffff16145b91505092915050565b8273ffffffffffffffffffffffffffffffffffffffff1661159982610cff565b73ffffffffffffffffffffffffffffffffffffffff16146115ef576040517f08c379a00000000000000000000000000000000000000000000000000000000081526004016115e6906132a6565b60405180910390fd5b600073ffffffffffffffffffffffffffffffffffffffff168273ffffffffffffffffffffffffffffffffffffffff16141561165f576040517f08c379a000000000000000000000000000000000000000000000000000000000815260040161165690613338565b60405180910390fd5b61166a838383611d2f565b61167560008261142b565b6001600360008573ffffffffffffffffffffffffffffffffffffffff1673ffffffffffffffffffffffffffffffffffffffff16815260200190815260200160002060008282546116c59190613387565b925050819055506001600360008473ffffffffffffffffffffffffffffffffffffffff1673ffffffffffffffffffffffffffffffffffffffff168152602001908152602001600020600082825461171c91906133bb565b92505081905550816002600083815260200190815260200160002060006101000a81548173ffffffffffffffffffffffffffffffffffffffff021916908373ffffffffffffffffffffffffffffffffffffffff160217905550808273ffffffffffffffffffffffffffffffffffffffff168473ffffffffffffffffffffffffffffffffffffffff167fddf252ad1be2c89b69c2b068fc378daa952ba7f163c4a11628f55a4df523b3ef60405160405180910390a46117db838383611d34565b505050565b6117e8611423565b73ffffffffffffffffffffffffffffffffffffffff16611806610e7d565b73ffffffffffffffffffffffffffffffffffffffff161461185c576040517f08c379a00000000000000000000000000000000000000000000000000000000081526004016118539061345d565b60405180910390fd5b565b6000600960008381526020019081526020016000206000018190555060006009600083815260200190815260200160002060010160006101000a81548173ffffffffffffffffffffffffffffffffffffffff021916908373ffffffffffffffffffffffffffffffffffffffff16021790555050565b600081836118e1919061347d565b905092915050565b600081836118f79190613506565b905092915050565b6000600760009054906101000a900473ffffffffffffffffffffffffffffffffffffffff16905081600760006101000a81548173ffffffffffffffffffffffffffffffffffffffff021916908373ffffffffffffffffffffffffffffffffffffffff1602179055508173ffffffffffffffffffffffffffffffffffffffff168173ffffffffffffffffffffffffffffffffffffffff167f8be0079c531659141344cd1fd0a4f28419497f9722a3daafe3b4186f6b6457e060405160405180910390a35050565b8173ffffffffffffffffffffffffffffffffffffffff168373ffffffffffffffffffffffffffffffffffffffff161415611a34576040517f08c379a0000000000000000000000000000000000000000000000000000000008152600401611a2b90613583565b60405180910390fd5b80600560008573ffffffffffffffffffffffffffffffffffffffff1673ffffffffffffffffffffffffffffffffffffffff16815260200190815260200160002060008473ffffffffffffffffffffffffffffffffffffffff1673ffffffffffffffffffffffffffffffffffffffff16815260200190815260200160002060006101000a81548160ff0219169083151502179055508173ffffffffffffffffffffffffffffffffffffffff168373ffffffffffffffffffffffffffffffffffffffff167f17307eab39ab6107e8899845ad3d59bd9653f200f220920489ca2b5937696c3183604051611b2591906123e0565b60405180910390a3505050565b611b3d848484611579565b611b4984848484611d39565b611b88576040517f08c379a0000000000000000000000000000000000000000000000000000000008152600401611b7f90613615565b60405180910390fd5b50505050565b606060405180602001604052806000815250905090565b6060611bb0826113d8565b6000611bba611b8e565b90506000815111611bda5760405180602001604052806000815250611c05565b80611be484611ed0565b604051602001611bf5929190613124565b6040516020818303038152906040525b915050919050565b600081600001549050919050565b611c35828260405180602001604052806000815250612031565b5050565b611c4282611cc3565b611c81576040517f08c379a0000000000000000000000000000000000000000000000000000000008152600401611c78906136a7565b60405180910390fd5b80600660008481526020019081526020016000209080519060200190611ca8929190612289565b505050565b6001816000016000828254019250508190555050565b60008073ffffffffffffffffffffffffffffffffffffffff166002600084815260200190815260200160002060009054906101000a900473ffffffffffffffffffffffffffffffffffffffff1673ffffffffffffffffffffffffffffffffffffffff1614159050919050565b505050565b505050565b6000611d5a8473ffffffffffffffffffffffffffffffffffffffff1661208c565b15611ec3578373ffffffffffffffffffffffffffffffffffffffff1663150b7a02611d83611423565b8786866040518563ffffffff1660e01b8152600401611da5949392919061371c565b602060405180830381600087803b158015611dbf57600080fd5b505af1925050508015611df057506040513d601f19601f82011682018060405250810190611ded919061377d565b60015b611e73573d8060008114611e20576040519150601f19603f3d011682016040523d82523d6000602084013e611e25565b606091505b50600081511415611e6b576040517f08c379a0000000000000000000000000000000000000000000000000000000008152600401611e6290613615565b60405180910390fd5b805181602001fd5b63150b7a0260e01b7bffffffffffffffffffffffffffffffffffffffffffffffffffffffff1916817bffffffffffffffffffffffffffffffffffffffffffffffffffffffff191614915050611ec8565b600190505b949350505050565b60606000821415611f18576040518060400160405280600181526020017f3000000000000000000000000000000000000000000000000000000000000000815250905061202c565b600082905060005b60008214611f4a578080611f33906137aa565b915050600a82611f439190613506565b9150611f20565b60008167ffffffffffffffff811115611f6657611f65612741565b5b6040519080825280601f01601f191660200182016040528015611f985781602001600182028036833780820191505090505b5090505b6000851461202557600182611fb19190613387565b9150600a85611fc091906137f3565b6030611fcc91906133bb565b60f81b818381518110611fe257611fe1613824565b5b60200101907effffffffffffffffffffffffffffffffffffffffffffffffffffffffffffff1916908160001a905350600a8561201e9190613506565b9450611f9c565b8093505050505b919050565b61203b83836120af565b6120486000848484611d39565b612087576040517f08c379a000000000000000000000000000000000000000000000000000000000815260040161207e90613615565b60405180910390fd5b505050565b6000808273ffffffffffffffffffffffffffffffffffffffff163b119050919050565b600073ffffffffffffffffffffffffffffffffffffffff168273ffffffffffffffffffffffffffffffffffffffff16141561211f576040517f08c379a00000000000000000000000000000000000000000000000000000000081526004016121169061389f565b60405180910390fd5b61212881611cc3565b15612168576040517f08c379a000000000000000000000000000000000000000000000000000000000815260040161215f9061390b565b60405180910390fd5b61217460008383611d2f565b6001600360008473ffffffffffffffffffffffffffffffffffffffff1673ffffffffffffffffffffffffffffffffffffffff16815260200190815260200160002060008282546121c491906133bb565b92505081905550816002600083815260200190815260200160002060006101000a81548173ffffffffffffffffffffffffffffffffffffffff021916908373ffffffffffffffffffffffffffffffffffffffff160217905550808273ffffffffffffffffffffffffffffffffffffffff16600073ffffffffffffffffffffffffffffffffffffffff167fddf252ad1be2c89b69c2b068fc378daa952ba7f163c4a11628f55a4df523b3ef60405160405180910390a461228560008383611d34565b5050565b82805461229590612a48565b90600052602060002090601f0160209004810192826122b757600085556122fe565b82601f106122d057805160ff19168380011785556122fe565b828001600101855582156122fe579182015b828111156122fd5782518255916020019190600101906122e2565b5b50905061230b919061230f565b5090565b5b80821115612328576000816000905550600101612310565b5090565b6000604051905090565b600080fd5b600080fd5b60007fffffffff0000000000000000000000000000000000000000000000000000000082169050919050565b61237581612340565b811461238057600080fd5b50565b6000813590506123928161236c565b92915050565b6000602082840312156123ae576123ad612336565b5b60006123bc84828501612383565b91505092915050565b60008115159050919050565b6123da816123c5565b82525050565b60006020820190506123f560008301846123d1565b92915050565b600081519050919050565b600082825260208201905092915050565b60005b8381101561243557808201518184015260208101905061241a565b83811115612444576000848401525b50505050565b6000601f19601f8301169050919050565b6000612466826123fb565b6124708185612406565b9350612480818560208601612417565b6124898161244a565b840191505092915050565b600060208201905081810360008301526124ae818461245b565b905092915050565b6000819050919050565b6124c9816124b6565b81146124d457600080fd5b50565b6000813590506124e6816124c0565b92915050565b60006020828403121561250257612501612336565b5b6000612510848285016124d7565b91505092915050565b600073ffffffffffffffffffffffffffffffffffffffff82169050919050565b600061254482612519565b9050919050565b61255481612539565b82525050565b600060208201905061256f600083018461254b565b92915050565b61257e81612539565b811461258957600080fd5b50565b60008135905061259b81612575565b92915050565b600080604083850312156125b8576125b7612336565b5b60006125c68582860161258c565b92505060206125d7858286016124d7565b9150509250929050565b6000806000606084860312156125fa576125f9612336565b5b60006126088682870161258c565b93505060206126198682870161258c565b925050604061262a868287016124d7565b9150509250925092565b60006020828403121561264a57612649612336565b5b60006126588482850161258c565b91505092915050565b61266a816124b6565b82525050565b60006020820190506126856000830184612661565b92915050565b600080604083850312156126a2576126a1612336565b5b60006126b0858286016124d7565b92505060206126c1858286016124d7565b9150509250929050565b6126d4816123c5565b81146126df57600080fd5b50565b6000813590506126f1816126cb565b92915050565b6000806040838503121561270e5761270d612336565b5b600061271c8582860161258c565b925050602061272d858286016126e2565b9150509250929050565b600080fd5b600080fd5b7f4e487b7100000000000000000000000000000000000000000000000000000000600052604160045260246000fd5b6127798261244a565b810181811067ffffffffffffffff8211171561279857612797612741565b5b80604052505050565b60006127ab61232c565b90506127b78282612770565b919050565b600067ffffffffffffffff8211156127d7576127d6612741565b5b6127e08261244a565b9050602081019050919050565b82818337600083830152505050565b600061280f61280a846127bc565b6127a1565b90508281526020810184848401111561282b5761282a61273c565b5b6128368482856127ed565b509392505050565b600082601f83011261285357612852612737565b5b81356128638482602086016127fc565b91505092915050565b6000806000806080858703121561288657612885612336565b5b60006128948782880161258c565b94505060206128a58782880161258c565b93505060406128b6878288016124d7565b925050606085013567ffffffffffffffff8111156128d7576128d661233b565b5b6128e38782880161283e565b91505092959194509250565b600067ffffffffffffffff82111561290a57612909612741565b5b6129138261244a565b9050602081019050919050565b600061293361292e846128ef565b6127a1565b90508281526020810184848401111561294f5761294e61273c565b5b61295a8482856127ed565b509392505050565b600082601f83011261297757612976612737565b5b8135612987848260208601612920565b91505092915050565b6000602082840312156129a6576129a5612336565b5b600082013567ffffffffffffffff8111156129c4576129c361233b565b5b6129d084828501612962565b91505092915050565b600080604083850312156129f0576129ef612336565b5b60006129fe8582860161258c565b9250506020612a0f8582860161258c565b9150509250929050565b7f4e487b7100000000000000000000000000000000000000000000000000000000600052602260045260246000fd5b60006002820490506001821680612a6057607f821691505b60208210811415612a7457612a73612a19565b5b50919050565b7f4552433732313a20617070726f76616c20746f2063757272656e74206f776e6560008201527f7200000000000000000000000000000000000000000000000000000000000000602082015250565b6000612ad6602183612406565b9150612ae182612a7a565b604082019050919050565b60006020820190508181036000830152612b0581612ac9565b9050919050565b7f4552433732313a20617070726f76652063616c6c6572206973206e6f7420746f60008201527f6b656e206f776e6572206e6f7220617070726f76656420666f7220616c6c0000602082015250565b6000612b68603e83612406565b9150612b7382612b0c565b604082019050919050565b60006020820190508181036000830152612b9781612b5b565b9050919050565b7f4552433732313a2063616c6c6572206973206e6f7420746f6b656e206f776e6560008201527f72206e6f7220617070726f766564000000000000000000000000000000000000602082015250565b6000612bfa602e83612406565b9150612c0582612b9e565b604082019050919050565b60006020820190508181036000830152612c2981612bed565b9050919050565b7f4e46544d61726b65743a2062616c616e6365206973207a65726f000000000000600082015250565b6000612c66601a83612406565b9150612c7182612c30565b602082019050919050565b60006020820190508181036000830152612c9581612c59565b9050919050565b7f4e46544d61726b65743a204e4654206e6f74206c697374656420696e206d617260008201527f6b657420666f722073616c650000000000000000000000000000000000000000602082015250565b6000612cf8602c83612406565b9150612d0382612c9c565b604082019050919050565b60006020820190508181036000830152612d2781612ceb565b9050919050565b7f4e46544d61726b65743a20596f75277265206e6f74207468652073656c6c6572600082015250565b6000612d64602083612406565b9150612d6f82612d2e565b602082019050919050565b60006020820190508181036000830152612d9381612d57565b9050919050565b6000606082019050612daf600083018661254b565b612dbc602083018561254b565b612dc96040830184612661565b949350505050565b50565b6000612de1600083612406565b9150612dec82612dd1565b600082019050919050565b6000819050919050565b6000819050919050565b6000612e26612e21612e1c84612df7565b612e01565b6124b6565b9050919050565b612e3681612e0b565b82525050565b600060a082019050612e516000830187612661565b612e5e602083018661254b565b612e6b604083018561254b565b8181036060830152612e7c81612dd4565b9050612e8b6080830184612e2d565b95945050505050565b7f4e46544d61726b65743a20496e636f7272656374207072696365000000000000600082015250565b6000612eca601a83612406565b9150612ed582612e94565b602082019050919050565b60006020820190508181036000830152612ef981612ebd565b9050919050565b7f4552433732313a20696e76616c696420746f6b656e2049440000000000000000600082015250565b6000612f36601883612406565b9150612f4182612f00565b602082019050919050565b60006020820190508181036000830152612f6581612f29565b9050919050565b7f4552433732313a2061646472657373207a65726f206973206e6f74206120766160008201527f6c6964206f776e65720000000000000000000000000000000000000000000000602082015250565b6000612fc8602983612406565b9150612fd382612f6c565b604082019050919050565b60006020820190508181036000830152612ff781612fbb565b9050919050565b7f4e46544d61726b65743a204e4654207072696365206d7573742062652067726560008201527f61746572207468616e2030000000000000000000000000000000000000000000602082015250565b600061305a602b83612406565b915061306582612ffe565b604082019050919050565b600060208201905081810360008301526130898161304d565b9050919050565b600060a0820190506130a56000830187612661565b6130b2602083018661254b565b6130bf604083018561254b565b81810360608301526130d081612dd4565b90506130df6080830184612661565b95945050505050565b600081905092915050565b60006130fe826123fb565b61310881856130e8565b9350613118818560208601612417565b80840191505092915050565b600061313082856130f3565b915061313c82846130f3565b91508190509392505050565b600060a08201905061315d6000830188612661565b61316a602083018761254b565b613177604083018661254b565b8181036060830152613189818561245b565b90506131986080830184612e2d565b9695505050505050565b7f4f776e61626c653a206e6577206f776e657220697320746865207a65726f206160008201527f6464726573730000000000000000000000000000000000000000000000000000602082015250565b60006131fe602683612406565b9150613209826131a2565b604082019050919050565b6000602082019050818103600083015261322d816131f1565b9050919050565b7f4552433732313a207472616e736665722066726f6d20696e636f72726563742060008201527f6f776e6572000000000000000000000000000000000000000000000000000000602082015250565b6000613290602583612406565b915061329b82613234565b604082019050919050565b600060208201905081810360008301526132bf81613283565b9050919050565b7f4552433732313a207472616e7366657220746f20746865207a65726f2061646460008201527f7265737300000000000000000000000000000000000000000000000000000000602082015250565b6000613322602483612406565b915061332d826132c6565b604082019050919050565b6000602082019050818103600083015261335181613315565b9050919050565b7f4e487b7100000000000000000000000000000000000000000000000000000000600052601160045260246000fd5b6000613392826124b6565b915061339d836124b6565b9250828210156133b0576133af613358565b5b828203905092915050565b60006133c6826124b6565b91506133d1836124b6565b9250827fffffffffffffffffffffffffffffffffffffffffffffffffffffffffffffffff0382111561340657613405613358565b5b828201905092915050565b7f4f776e61626c653a2063616c6c6572206973206e6f7420746865206f776e6572600082015250565b6000613447602083612406565b915061345282613411565b602082019050919050565b600060208201905081810360008301526134768161343a565b9050919050565b6000613488826124b6565b9150613493836124b6565b9250817fffffffffffffffffffffffffffffffffffffffffffffffffffffffffffffffff04831182151516156134cc576134cb613358565b5b828202905092915050565b7f4e487b7100000000000000000000000000000000000000000000000000000000600052601260045260246000fd5b6000613511826124b6565b915061351c836124b6565b92508261352c5761352b6134d7565b5b828204905092915050565b7f4552433732313a20617070726f766520746f2063616c6c657200000000000000600082015250565b600061356d601983612406565b915061357882613537565b602082019050919050565b6000602082019050818103600083015261359c81613560565b9050919050565b7f4552433732313a207472616e7366657220746f206e6f6e20455243373231526560008201527f63656976657220696d706c656d656e7465720000000000000000000000000000602082015250565b60006135ff603283612406565b915061360a826135a3565b604082019050919050565b6000602082019050818103600083015261362e816135f2565b9050919050565b7f45524337323155524953746f726167653a2055524920736574206f66206e6f6e60008201527f6578697374656e7420746f6b656e000000000000000000000000000000000000602082015250565b6000613691602e83612406565b915061369c82613635565b604082019050919050565b600060208201905081810360008301526136c081613684565b9050919050565b600081519050919050565b600082825260208201905092915050565b60006136ee826136c7565b6136f881856136d2565b9350613708818560208601612417565b6137118161244a565b840191505092915050565b6000608082019050613731600083018761254b565b61373e602083018661254b565b61374b6040830185612661565b818103606083015261375d81846136e3565b905095945050505050565b6000815190506137778161236c565b92915050565b60006020828403121561379357613792612336565b5b60006137a184828501613768565b91505092915050565b60006137b5826124b6565b91507fffffffffffffffffffffffffffffffffffffffffffffffffffffffffffffffff8214156137e8576137e7613358565b5b600182019050919050565b60006137fe826124b6565b9150613809836124b6565b925082613819576138186134d7565b5b828206905092915050565b7f4e487b7100000000000000000000000000000000000000000000000000000000600052603260045260246000fd5b7f4552433732313a206d696e7420746f20746865207a65726f2061646472657373600082015250565b6000613889602083612406565b915061389482613853565b602082019050919050565b600060208201905081810360008301526138b88161387c565b9050919050565b7f4552433732313a20746f6b656e20616c7265616479206d696e74656400000000600082015250565b60006138f5601c83612406565b9150613900826138bf565b602082019050919050565b60006020820190508181036000830152613924816138e8565b905091905056fea26469706673582212207f4f5946d0c8704a6570a7ae00cbb172a9fda8b3988d06eebb3498678957972064736f6c63430008090033",
  "linkReferences": {},
  "deployedLinkReferences": {}
}